:100000000C9434000C9451000C9451000C94510049
:100010000C9451000C9451000C9451000C9451001C
:100020000C9451000C9451000C9451000C9451000C
:100030000C9451000C9451000C9451000C945100FC
:100040000C9451000C9451000C9451000C945100EC
:100050000C9451000C9451000C9451000C945100DC
:100060000C9451000C94510011241FBECFEFD8E026
:10007000DEBFCDBF13E0A0E0B1E0E4EFFCE002C0E2
:1000800005900D92A232B107D9F723E0A2E2B3E0C6
:1000900001C01D92A832B207E1F70E94E3050C945B
:1000A00078060C9400005F9A2FEF83EC99E02150C2
:1000B00080409040E1F700C000005F982FEF83EC94
:1000C00099E0215080409040E1F700C000005F9A25
:1000D0002FEF83EC99E0215080409040E1F700C081
:1000E000000008950E9453008FEF8AB95F9A219A09
:1000F00008950E9454030E94720081E00E948603CA
:100100002FEF83ED90E3215080409040E1F700C055
:1001100000008BEC0E94860389E30E947B038CE243
:100120000E947B0380E00E947B0384E30E947B03A8
:1001300082E00E947B038FEC0E94860380E00E9495
:100140007B0381EC0E947B0380E30E947B0388EEAB
:100150000E94860385E80E947B0380E00E947B0367
:1001600088E70E947B038AEE0E94860380E00E945B
:100170007B0380E00E947B038DEE0E94860384E671
:100180000E947B0383E00E947B0382E10E947B0349
:1001900081E80E947B0387EF0E94860380E20E9431
:1001A0007B0380EC0E94860383E20E947B0380EC49
:1001B0000E94860380E10E947B0385EC0E948603F7
:1001C0008EE30E947B0388E20E947B0387EC0E94FF
:1001D000860386E80E947B0386E30E94860388E408
:1001E0000E947B0387E30E94860380E00E947B03DA
:1001F0008AE30E94860385E50E947B0381EB0E94CF
:10020000860380E00E947B0388E10E947B0386EBEB
:100210000E94860388E00E947B0382E80E947B03A1
:1002200087E20E947B0382EF0E94860380E00E94A7
:100230007B0386E20E94860381E00E947B0380EEBE
:100240000E9486038FE00E947B0381E30E947B0370
:100250008BE20E947B038CE00E947B038EE00E9475
:100260007B0388E00E947B038EE40E947B0381EF86
:100270000E947B0387E30E947B0387E00E947B034D
:1002800080E10E947B0383E00E947B038EE00E945A
:100290007B0389E00E947B0380E00E947B0381EE68
:1002A0000E94860380E00E947B038EE00E947B0315
:1002B00084E10E947B0383E00E947B0381E10E9432
:1002C0007B0387E00E947B0381E30E947B0381EC38
:1002D0000E947B0388E40E947B0388E00E947B03EA
:1002E0008FE00E947B038CE00E947B0381E30E94ED
:1002F0007B0386E30E947B038FE00E947B0381E106
:100300000E9486032FEF8BED95E0215080409040B6
:10031000E1F700C0000080E80E947B0389E20E94B0
:10032000860380E80E947B030895CF93C82F892F0E
:100330000E947B038C2F0E947B03CF910895CF9264
:10034000DF92EF92FF920F931F93CF93DF936C0195
:100350007B018A01E9018AE20E948603C6010E94AC
:100360009501C80101978C0D9D1D0E9495018BE29E
:100370000E948603C7010E949501CE0101978E0D50
:100380009F1D0E9495018CE20E948603DF91CF9110
:100390001F910F91FF90EF90DF90CF900895CF9233
:1003A000DF92EF92FF92CF93DF93EC016A017B0122
:1003B000452B462B472B49F0CE010E94950181E049
:1003C000C81AD108E108F108B9F7DF91CF91FF9081
:1003D000EF90DF90CF900895EF92FF920F931F93CD
:1003E000CF93DF93803F9105D0F4603421E0720712
:1003F000B0F47A018B01EC010E945E032EE130E043
:100400004EE150E0B801CE010E949F0144E853E064
:1004100060E070E0C7010E94CF010E946903DF9194
:10042000CF911F910F91FF90EF900895AF92BF92DF
:10043000CF92DF92EF92FF920F931F93CF93DF93B0
:100440006C015B017A01E9010E945E039E01A70134
:10045000B501C6010E949F01EC9EB001ED9E700D9A
:10046000FC9E700D1124AB0160E070E0C8010E9499
:10047000CF010E946903DF91CF911F910F91FF90EF
:10048000EF90DF90CF90BF90AF9008952F923F9262
:100490004F925F926F927F928F929F92AF92BF9294
:1004A000CF92DF92EF92FF920F931F93CF93DF9340
:1004B0004115510561057105E1F42EC08881832144
:1004C00021F0C8010E94950104C080E090E00E94E4
:1004D0009501369481E0481A510881F78FEFC81AC8
:1004E000D80AE80AF80AC814D904EA04FB0449F453
:1004F00013C089014A015B013C01C12CD12C76015A
:10050000212C6894442443F8522C6894332437F8FF
:10051000E301CC0DDD1DD2CFDF91CF911F910F9163
:10052000FF90EF90DF90CF90BF90AF909F908F9013
:100530007F906F905F904F903F902F9008950F9312
:100540001F93CF93DF93803F9105E0F4603421E067
:100550007207C0F48B01EC010E945E032EE130E0D3
:100560004EE150E0B801CE010E949F0120EE37E03D
:1005700041E750E060E070E086E692E00E944602CB
:100580000E946903DF91CF911F910F910895FF920F
:100590000F931F93CF93DF93803F910508F560344D
:1005A00021E07207E8F4F42E8B01EC010E945E0357
:1005B0002AE030E04AE050E0B801CE010E949F01FD
:1005C0002DE0F29EC00111242FEF3FEF4AE050E0F2
:1005D00060E070E0895F9E4F0E9446020E946903BE
:1005E000DF91CF911F910F91FF9008950F931F936B
:1005F000CF93DF93803F9105E0F4603421E07207F0
:10060000C0F48B01EC010E945E0327E030E047E07C
:1006100050E0B801CE010E949F012FEF3FEF47E06D
:1006200050E060E070E080E091E00E9446020E94AD
:100630006903DF91CF911F910F910895CF93C82F38
:100640008A3019F48DE00E941E03E0ECF0E0908106
:1006500095FFFDCFC093C600CF910895E0ECF0E088
:1006600080818823ECF78091C60008951092C50020
:1006700087E68093C400E0ECF0E080818D7F80838A
:1006800086E08093C20088E18093C100E2E2F3E05B
:1006900085EE92E09383828387ED92E0918380835D
:1006A00008950E943603089584B18C6284B9249819
:1006B0002A9A81E08DBD80E58CBD089580E58CBDD2
:1006C00081E08DBD299A85E08A95F1F700002A988E
:1006D00008952A9A2998089581E58CBD1DBC289813
:1006E0000895289A08958EBD00000DB407FEFDCF31
:1006F0008EB590E00895299A95E09A95F1F700005B
:100700002A980E9473032A9A2998089595B1997F8F
:1007100095B99AE19A95F1F700C00E9473032A9A5D
:100720000895CF93C82F0E946C038C2F80680E947D
:10073000730380E00E94730380E00E947303C82F5C
:100740000E9471038C2FCF910895CF93DF93D82F00
:10075000C62F0E946C038D2F0E9473038C2F0E9462
:1007600073030E947103DF91CF910895CF93209A74
:1007700085B185B962E083E00E94A5038FE39CE91F
:100780000197F1F700C00000C0E08C2F0E94910398
:10079000CF5FC134D1F760E084E00E94A50361E03F
:1007A00080E40E94A50361E08AE00E94A50360E660
:1007B00080E20E94A50362E081E20E94A50364EA50
:1007C00081E40E94A50366E086E50E94A50361E03E
:1007D0008AE40E94A50361E08BE40E94A50360E027
:1007E0008BE40E94A50361E088E50E94A5036FEFFA
:1007F0008BE00E94A50365E089E00E94A50387EFD6
:1008000092E00E94480681E0CF91089580E40E9422
:100810009103807808958BE40E949103807208957B
:100820008F929F92AF92BF92CF92DF92EF92FF9200
:100830000F931F93CF93DF9300D000D0CDB7DEB7D7
:100840005C016B017A018E010F5F1F4F4E0145E085
:10085000840E911C87ED0E949103F80181938F0112
:10086000E815F905B9F79A81892F82958F7029814A
:10087000F0E12F9F90011124282BF5013183208373
:100880009F70892F90E0982F88272B81822BF6016B
:10089000918380838C81F70180836FEF8BE00E94CE
:1008A000A5030F900F900F900F90DF91CF911F91A4
:1008B0000F91FF90EF90DF90CF90BF90AF909F90FF
:1008C0008F900895EF92FF920F931F93CF93DF9332
:1008D00000D000D01F92CDB7DEB77C018B010AC0DB
:1008E000AE014B5F5F4FBE016D5F7F4FCE01019642
:1008F0000E9410040E940B04882391F30E940B04B1
:10090000882321F06FEF8BE00E94A50329813A81B3
:10091000ADECBCEC0E943906929582958F708927C8
:100920009F708927F701918380832B813C81A9E8FF
:10093000B8E80E943906969587959695879596957D
:100940008795F801918380830F900F900F900F90FF
:100950000F90DF91CF911F910F91FF90EF9008952D
:10096000CF93DF93EC010E94F50480EF90E09D832C
:100970008C8380E491E09F838E83DF91CF910895F3
:100980000F931F93CF93DF9300D000D0CDB7DEB786
:100990008C01FC0146815781425351096481758164
:1009A00076956795CE0101960E94EF0489819A8120
:1009B000AB81BC81F80180839183A283B3830F90C4
:1009C0000F900F900F90DF91CF911F910F9108958D
:1009D00070E00E94F60408950E94FA040895FC0154
:1009E000718360835383428308950895FC0171836A
:1009F00060830895FC0162817381808191810E94EE
:100A00009F020895FC0111821082138212820895C0
:100A1000FC0171836083538342830895FC0160323B
:100A200009F460E440EC460F80819181873E910596
:100A300050F08AE090E091838083828193810A96CE
:100A40009383828303C00A9691838083628173813A
:100A5000808191810E94C7020895EF92FF920F93C7
:100A60001F93CF93DF93442381F07C01EB0141502E
:100A7000042F10E00F5F1F4F060F171F6991C7016A
:100A80000E940E05C017D107C9F7DF91CF911F91C2
:100A90000F91FF90EF9008957F928F929F92AF9267
:100AA000BF92CF92DF92EF92FF920F931F93CF935B
:100AB000DF93CDB7DEB728970FB6F894DEBF0FBE31
:100AC000CDBF00E010E020E431E04DE750E060E011
:100AD00070E080E090E00E94160220E431E048ECF3
:100AE00050E060E070E084E690E00E94160220E4AE
:100AF00031E04CED50E060E070E088EC90E00E9466
:100B000016020F2EFAE0AF2EB12CF02D0F2EFAE2C6
:100B1000DF2EF02D0F2EFAE07F2EF02DC12C9D2D13
:100B2000990F9D0D9770892F880F890F8770D82E88
:100B3000072D1C2D882E912CE92EF12CB401C70114
:100B40000E94F60201501109C9F781E0A81AB10804
:100B500031F7CE0105960E94020540EF50E06DE2AC
:100B600070E0CE0105960E9408054EE061E073E05A
:100B7000CE0105960E942D05CE0101960E94020528
:100B80004AEF50E060E570E0CE0101960E94080552
:100B900047E060E173E0CE0101960E942D052896A2
:100BA0000FB6F894DEBF0FBECDBFDF91CF911F917E
:100BB0000F91FF90EF90DF90CF90BF90AF909F90FC
:100BC0008F907F900895CF93DF93CDB7DEB72897AE
:100BD0000FB6F894DEBF0FBECDBF0E9451030E9436
:100BE00079000E94B603811104C088E193E00E945D
:100BF0004806CE0101960E94B004CE0101960E94E3
:100C0000C0040E944C050E940B04882349F02FE782
:100C10008CE991E0215080409040E1F700C0000055
:100C20000E94060481110AC02FE78CE991E021504F
:100C300080409040E1F700C0000016C040E050E066
:100C40006EE071E08091F5029091F6020E94EC0155
:100C500063EF72E085EF92E00E9462046091F5021A
:100C6000CE0101960E94E804CE0101960E94EC0498
:100C7000CACFA29FB001B39FC001A39F700D811D79
:100C80001124911DB29F700D811D1124911D089595
:100C90000F931F93CF93DF93E0912403F0912503EB
:100CA000238121FF1BC08C01D0E0C0E0F8018191BD
:100CB0008F016091240370912503DB011896ED915B
:100CC000FC911997882331F00995892B79F3DFEF8F
:100CD000CFEFECCF8AE00995892B19F08FEF9FEFCA
:100CE00002C08D2F9C2FDF91CF911F910F910895FE
:040CF000F894FFCFA6
:100CF4009251CFE7154900000000000000000000F9
:100D040000000000000F07E198661F87E198660065
:100D140000003E0CC330F8330CC330F80000001F51
:100D24000E6318C0300C63987C0000003F0C630C09
:100D3400C330CC3318FC0000003F0FC300F83E0C56
:100D440003F0FC0000001F87E180781E060180602C
:100D54000000000F07E180601B8661F83C00000082
:100D6400198661987E1F866198660000000F03C093
:100D74006018060180F03C0000000F83E0180609AB
:100D84008260F81C0000001986C1E0701C0781B065
:100D9400660000001806018060180601F87E000055
:100DA4000030CC339CFF36CC330CC300000030CE73
:100DB40033CCDB32CCF31CC30000000F07E39CC32D
:100DC40030CE71F83C0000001F066198661F0601D2
:100DD40080600000001F8C330CC332CCF3187D00FC
:100DE40000001F0661987E19064198660000000FF6
:100DF40007E18870070461F83C0000003FCFF06011
:100E0400180601806018000000198661986619862A
:100E140061F83C00000030CC330C661983C06018C4
:100E240000000030CC330CDB3FCE730CC300000059
:100E340030C660F0180603C198C300000030CC31FE
:100E4400983C06018060180000003F8C6030180C4C
:100E5400060318FE000000060000003C000001F834
:100E640000000660000010800000420000810810AD
:100E74000207E0400819810070660E0143FC280552
:100E84000E70A014F9F2807FFFFE01CFFF38063CFC
:100E94001C6033F77CC193DDC98E8F07173CFDFFBF
:100EA4003CE4F7F273A3DFC5CF3FFFCF39FFFF9CCC
:100EB400EEEF7773F13C8FC784F21E0C13C8303009
:100EC4000600C00000000000000001000000000057
:100ED400002E03000000000002000000001E0300BA
:100EE4000000000E017800494E49545F444F4E45BE
:100EF40000505245535320414E59574845524500DE
:100F0400544F204D4F5645004E6F20546F75636803
:020F14002100BA
:00000001FF
