S017000045617274685F446566656E646572732E737265632A
S11300000C9434000C9451000C9451000C94510045
S11300100C9451000C9451000C9451000C94510018
S11300200C9451000C9451000C9451000C94510008
S11300300C9451000C9451000C9451000C945100F8
S11300400C9451000C9451000C9451000C945100E8
S11300500C9451000C9451000C9451000C945100D8
S11300600C9451000C94510011241FBECFEFD8E022
S1130070DEBFCDBF11E0A0E0B1E0EEE5FEE002C0DE
S113008005900D92AE33B107D9F721E0AEE3B1E0AC
S113009001C01D92A434B207E1F70E94A5030C9499
S11300A02D070C9400005F9A2FEF83EC99E0215008
S11300B080409040E1F700C000005F982FEF83EC90
S11300C099E0215080409040E1F700C000005F9A21
S11300D02FEF83EC99E0215080409040E1F700C07D
S11300E0000008950E9453008FEF8AB95F9A219A05
S11300F008950E944C020E94720081E00E947E02D8
S11301002FEF83ED90E3215080409040E1F700C051
S113011000008BEC0E947E0289E30E9473028CE251
S11301200E94730280E00E94730284E30E947302BF
S113013082E00E9473028FEC0E947E0280E00E94A3
S1130140730281EC0E94730280E30E94730288EEC2
S11301500E947E0285E80E94730280E00E9473027E
S113016088E70E9473028AEE0E947E0280E00E9469
S1130170730280E00E9473028DEE0E947E0284E688
S11301800E94730283E00E94730282E10E94730260
S113019081E80E94730287EF0E947E0280E20E943F
S11301A0730280EC0E947E0283E20E94730280EC60
S11301B00E947E0280E10E94730285EC0E947E020E
S11301C08EE30E94730288E20E94730287EC0E940D
S11301D07E0286E80E94730286E30E947E0288E41F
S11301E00E94730287E30E947E0280E00E947302F1
S11301F08AE30E947E0285E50E94730281EB0E94DD
S11302007E0280E00E94730288E10E94730286EB02
S11302100E947E0288E00E94730282E80E947302B8
S113022087E20E94730282EF0E947E0280E00E94B5
S1130230730286E20E947E0281E00E94730280EED5
S11302400E947E028FE00E94730281E30E94730287
S11302508BE20E9473028CE00E9473028EE00E9483
S1130260730288E00E9473028EE40E94730281EF9D
S11302700E94730287E30E94730287E00E94730264
S113028080E10E94730283E00E9473028EE00E9468
S1130290730289E00E94730280E00E94730281EE7F
S11302A00E947E0280E00E9473028EE00E9473022C
S11302B084E10E94730283E00E94730281E10E9440
S11302C0730287E00E94730281E30E94730281EC4F
S11302D00E94730288E40E94730288E00E94730201
S11302E08FE00E9473028CE00E94730281E30E94FB
S11302F0730286E30E9473028FE00E94730281E11D
S11303000E947E022FEF8BED95E0215080409040BB
S1130310E1F700C0000080E80E94730289E20E94B5
S11303207E0280E80E9473020895CF93C82F892F1C
S11303300E9473028C2F0E947302CF910895CF9272
S1130340DF92EF92FF920F931F93CF93DF936C0191
S11303507B018A01E9018AE20E947E02C6010E94B1
S11303609501C80101978C0D9D1D0E9495018BE29A
S11303700E947E02C7010E949501CE0101978E0D55
S11303809F1D0E9495018CE20E947E02DF91CF9115
S11303901F910F91FF90EF90DF90CF900895CF922F
S11303A0DF92EF92FF92CF93DF93EC016A017B011E
S11303B0452B462B472B49F0CE010E94950181E045
S11303C0C81AD108E108F108B9F7DF91CF91FF907D
S11303D0EF90DF90CF900895EF92FF920F931F93C9
S11303E0CF93DF93803F9105D0F4603421E072070E
S11303F0B0F47A018B01EC010E94560223E030E054
S113040043E050E0B801CE010E949F0149E050E072
S113041060E070E0C7010E94CF010E946102DF9199
S1130420CF911F910F91FF90EF900895CF93C82F14
S11304308A3019F48DE00E941602E0ECF0E080812D
S113044085FFFDCFC093C600CF910895E0ECF0E0A6
S113045080818823ECF78091C60008951092C5002E
S113046087E68093C400E0ECF0E080818D7F808398
S113047086E08093C20088E18093C100EEE3F1E05E
S11304808EE091E09383828380E091E09183808386
S113049008950E942E02089584B18C6284B9249830
S11304A02A9A81E08DBD80E58CBD089580E58CBDE0
S11304B081E08DBD299A85E08A95F1F700002A989C
S11304C008952A9A2998089581E58CBD1DBC289821
S11304D00895289A08958EBD00000DB407FEFDCF3F
S11304E08EB590E00895299A95E09A95F1F7000069
S11304F02A980E946B022A9A2998089595B1997FA7
S113050095B99AE19A95F1F700C00E946B022A9A74
S11305100895CF93C82F0E9464028C2F80680E9494
S11305206B0280E00E946B0280E00E946B02C82F85
S11305300E9469028C2FCF910895CF93DF93D82F17
S1130540C62F0E9464028D2F0E946B028C2F0E9482
S11305506B020E946902DF91CF910895CF93209A94
S113056085B185B962E083E00E949D028FE39CE936
S11305700197F1F700C00000C0E08C2F0E948902AF
S1130580CF5FC134D1F760E084E00E949D0261E056
S113059080E40E949D0261E08AE00E949D0260E680
S11305A080E20E949D0262E081E20E949D0264EA70
S11305B081E40E949D0266E086E50E949D0261E05E
S11305C08AE40E949D0261E08BE40E949D0260E047
S11305D08BE40E949D0261E088E50E949D026FEF1A
S11305E08BE00E949D0265E089E00E949D028CE1FF
S11305F091E00E94350481E0CF91089580E40E9447
S11306008902807808958BE40E948902807208959B
S11306108F929F92AF92BF92CF92DF92EF92FF920E
S11306200F931F93CF93DF9300D000D0CDB7DEB7E5
S11306305C016B017A018E010F5F1F4F4E0185E053
S1130640880E911C87ED0E948902F80181938F0125
S1130650E815F905B9F78A812981F0E12F9F900106
S11306601124982F92959F70292BF50131832083B3
S11306708F7090E0982F88272B81822BF60191832D
S113068080838C81F70180836FEF8BE00E949D0251
S11306900F900F900F900F90DF91CF911F910F91BA
S11306A0FF90EF90DF90CF90BF90AF909F908F908E
S11306B00895EF92FF920F931F93CF93DF9300D08F
S11306C000D01F92CDB7DEB77C018B010AC0AE010A
S11306D04B5F5F4FBE016D5F7F4FCE0101960E945D
S11306E008030E940303882391F30E9403038823D1
S11306F021F06FEF8BE00E949D0229813A81ADECDD
S1130700BCEC0E94100496958795969587959695CE
S11307108795F701918380832B813C810E9410048B
S1130720969587959695879596958795F8019183E3
S113073080830F900F900F900F900F90DF91CF91C7
S11307401F910F91FF90EF900895CF93DF9300D006
S113075000D0CDB7DEB70E9449020E9479000E9402
S1130760AE02811104C086E291E00E94350482E366
S113077090E09A8389839C838B8300E311E06B81EF
S11307807C81665F7F4F40E058EF89819A810E94A7
S1130790EC016B817C816B5F7F4F40EE57E0898178
S11307A09A810E94EC016B817C814FE150E0898148
S11307B09A810E94EC010E940303882349F02FEFE1
S11307C081EE94E0215080409040E1F700C00000A9
S11307D00E94FE0281110AC02FEF81EE94E02150A5
S11307E080409040E1F700C00000C9CFBE016D5FBA
S11307F07F4FCE0101960E9459038C818F938B8188
S11308008F938A818F9389818F931F930F930E9473
S11308101F040F900F900F900F900F900F90AFCF79
S1130820A29FB001B39FC001A39F700D811D11242D
S1130830911DB29F700D811D1124911D0895A0E09A
S1130840B0E0E5E2F4E00C940607AE014B5F5F4FC5
S1130850FA0161917191AF01809140019091410140
S11308600E946504E2E00C9422070F931F93CF9338
S1130870DF93E0914001F0914101238121FF1BC0EE
S11308808C01D0E0C0E0F80181918F0160914001BA
S113089070914101DB011896ED91FC911997882321
S11308A031F00995892B79F3DFEFCFEFECCF8AE0B4
S11308B00995892B19F08FEF9FEF02C08D2F9C2F84
S11308C0DF91CF911F910F910895ABE0B0E0EBE67B
S11308D0F4E00C94F6066C017B018A01FC0117829A
S11308E01682838181FFCCC1CE0101963C01F601C1
S11308F09381F70193FD859193FF81917F01882373
S113090009F4BAC1853239F493FD859193FF81913D
S11309107F01853229F4B60190E00E945C06E7CF9E
S1130920912C212C312CFFE1F315D8F08B3279F086
S113093038F4803279F08332A1F4232D20611DC074
S11309408D3261F0803369F4232D216016C0832D2C
S11309508260382EE32DE4603E2E2AC0F32DF86029
S11309601DC037FC2DC020ED280F2A3040F08E32F8
S1130970B9F436FC81C1232D2064322E19C036FE11
S113098006C08AE0989E200D1124922E11C0EAE040
S11309902E9E200D1124222EF32DF0623F2E08C02E
S11309A08C3621F4832D8068382E02C0883641F4B9
S11309B0F70193FD859193FF81917F018111B3CF5D
S11309C0982F9F7D9554933028F40C5F1F4F9FE31D
S11309D099830DC0833631F0833771F0833509F084
S11309E059C021C0F801808189830E5F1F4F88247C
S11309F08394912C530113C02801F2E04F0E511C33
S1130A00F801A080B18036FE03C0692D70E002C0F9
S1130A106FEF7FEFC5010E9451064C018201F32D57
S1130A20FF773F2E16C0280122E0420E511CF80128
S1130A30A080B18036FE03C0692D70E002C06FEF64
S1130A407FEFC5010E9446064C01F32DF0683F2E4E
S1130A50820133FC1BC0822D90E088169906B0F405
S1130A60B60180E290E00E945C062A94F4CFF5017E
S1130A7037FC859137FE81915F01B60190E00E94B9
S1130A805C0621102A9421E0821A910881149104B1
S1130A9071F7E8C0843611F0893641F5F80137FE64
S1130AA007C060817181828193810C5F1F4F08C0F0
S1130AB060817181072E000C880B990B0E5F1F4F0C
S1130AC0F32DFF763F2E97FF09C090958095709582
S1130AD061957F4F8F4F9F4FF0683F2E2AE030E0A3
S1130AE0A3010E949806882E861845C0853731F4E4
S1130AF0232D2F7EB22E2AE030E025C0932D997F3E
S1130B00B92E8F36C1F018F4883579F0B5C0803726
S1130B1019F0883721F0B0C0E92FE061BE2EB4FE91
S1130B200DC0FB2DF460BF2E09C034FE0AC0292F6E
S1130B302660B22E06C028E030E005C020E130E097
S1130B4002C020E132E0F801B7FE07C06081718184
S1130B50828193810C5F1F4F06C06081718180E0A8
S1130B6090E00E5F1F4FA3010E949806882E8618FE
S1130B70FB2DFF773F2E36FE0DC0232D2E7FA22E98
S1130B80891458F434FE0BC032FC09C0832D8E7EC8
S1130B90A82E05C0B82CA32C03C0B82C01C0B92CB6
S1130BA0A4FE0FC0FE01E80DF11D8081803321F405
S1130BB09A2D997EA92E09C0A2FE06C0B394B394BF
S1130BC004C08A2D867809F0B394A3FC11C0A0FE5A
S1130BD006C0B21488F4280C922C9B180EC0B214D0
S1130BE060F4B60180E290E00E945C06B394F7CF13
S1130BF0B21418F42B1802C0982C212CA4FE10C097
S1130C00B60180E390E00E945C06A2FE17C0A1FC3E
S1130C1003C088E790E002C088E590E0B6010CC00C
S1130C208A2D867859F0A1FE02C08BE201C080E2D1
S1130C30A7FC8DE2B60190E00E945C06891438F4AA
S1130C40B60180E390E00E945C069A94F7CF8A9400
S1130C50F301E80DF11D8081B60190E00E945C066D
S1130C608110F5CF222009F442CEB60180E290E053
S1130C700E945C062A94F6CFF6018681978102C011
S1130C808FEF9FEF2B96E2E10C941207FC01059085
S1130C90615070400110D8F7809590958E0F9F1F7A
S1130CA00895FC016150704001900110D8F78095BF
S1130CB090958E0F9F1F08950F931F93CF93DF93EB
S1130CC0FB01238121FD03C08FEF9FEF2CC022FF86
S1130CD016C046815781248135814217530744F455
S1130CE0A081B1819D012F5F3F4F318320838C937D
S1130CF0268137812F5F3F4F3783268314C08B01B2
S1130D00EC01FB010084F185E02D0995892BE1F6C6
S1130D10D80116968D919C911797019617969C93DE
S1130D208E931697CE01DF91CF911F910F91089565
S1130D30FA01AA27283051F1203181F1E8946F9308
S1130D406E7F6E5F7F4F8F4F9F4FAF4FB1E03ED0AE
S1130D50B4E03CD0670F781F891F9A1FA11D680F4C
S1130D60791F8A1F911DA11D6A0F711D811D911D7F
S1130D70A11D20D009F468943F912AE0269F1124F4
S1130D803019305D3193DEF6CF010895462F477058
S1130D90405D4193B3E00FD0C9F7F6CF462F4F70B3
S1130DA0405D4A3318F0495D31FD4052419302D011
S1130DB0A9F7EACFB4E0A6959795879577956795B7
S1130DC0BA95C9F700976105710508959B01AC01B7
S1130DD00A2E06945795479537952795BA95C9F7DE
S1130DE0620F731F841F951FA01D08952F923F92B9
S1130DF04F925F926F927F928F929F92AF92BF9227
S1130E00CF92DF92EF92FF920F931F93CF93DF93D2
S1130E10CDB7DEB7CA1BDB0B0FB6F894DEBF0FBE2F
S1130E20CDBF09942A88398848885F846E847D847C
S1130E308C849B84AA84B984C884DF80EE80FD807E
S1130E400C811B81AA81B981CE0FD11D0FB6F894F4
S1110E50DEBF0FBECDBFED010895F894FFCFB5
S1130E5E0000000100000000000026020000000057
S1130E6E000200000000160200000000494E495422
S1130E7E5F444F4E45004E6F20546F7563682100DA
S1110E8E0A546F7563682025642025640000F3
S9030000FC
