:100000000C9434000C9451000C9451000C94510049
:100010000C9451000C9451000C9451000C9451001C
:100020000C9451000C9451000C9451000C9451000C
:100030000C9451000C9451000C9451000C945100FC
:100040000C9451000C9451000C9451000C945100EC
:100050000C9451000C9451000C9451000C945100DC
:100060000C9451000C94510011241FBECFEFD8E026
:10007000DEBFCDBF11E0A0E0B1E0ECE0FAE002C0ED
:1000800005900D92A63AB107D9F721E0A6EAB1E0B2
:1000900001C01D92AC3AB207E1F70E9471040C94C2
:1000A00004050C9400005F9A2FEF83EC99E0215037
:1000B00080409040E1F700C000005F982FEF83EC94
:1000C00099E0215080409040E1F700C000005F9A25
:1000D0002FEF83EC99E0215080409040E1F700C081
:1000E000000008950E9453008FEF8AB95F9A219A09
:1000F00008950E94C4020E94720081E00E94F602EC
:100100002FEF83ED90E3215080409040E1F700C055
:1001100000008BEC0E94F60289E30E94EB028CE265
:100120000E94EB0280E00E94EB0284E30E94EB025B
:1001300082E00E94EB028FEC0E94F60280E00E94B7
:10014000EB0281EC0E94EB0280E30E94EB0288EE5E
:100150000E94F60285E80E94EB0280E00E94EB021A
:1001600088E70E94EB028AEE0E94F60280E00E947D
:10017000EB0280E00E94EB028DEE0E94F60284E624
:100180000E94EB0283E00E94EB0282E10E94EB02FC
:1001900081E80E94EB0287EF0E94F60280E20E9453
:1001A000EB0280EC0E94F60283E20E94EB0280ECFC
:1001B0000E94F60280E10E94EB0285EC0E94F602AA
:1001C0008EE30E94EB0288E20E94EB0287EC0E9421
:1001D000F60286E80E94EB0286E30E94F60288E4BB
:1001E0000E94EB0287E30E94F60280E00E94EB028D
:1001F0008AE30E94F60285E50E94EB0281EB0E94F1
:10020000F60280E00E94EB0288E10E94EB0286EB9E
:100210000E94F60288E00E94EB0282E80E94EB0254
:1002200087E20E94EB0282EF0E94F60280E00E94C9
:10023000EB0286E20E94F60281E00E94EB0280EE71
:100240000E94F6028FE00E94EB0281E30E94EB0223
:100250008BE20E94EB028CE00E94EB028EE00E9497
:10026000EB0288E00E94EB028EE40E94EB0281EF39
:100270000E94EB0287E30E94EB0287E00E94EB0200
:1002800080E10E94EB0283E00E94EB028EE00E947C
:10029000EB0289E00E94EB0280E00E94EB0281EE1B
:1002A0000E94F60280E00E94EB028EE00E94EB02C8
:1002B00084E10E94EB0283E00E94EB0281E10E9454
:1002C000EB0287E00E94EB0281E30E94EB0281ECEB
:1002D0000E94EB0288E40E94EB0288E00E94EB029D
:1002E0008FE00E94EB028CE00E94EB0281E30E940F
:1002F000EB0286E30E94EB028FE00E94EB0281E1B9
:100300000E94F6022FEF8BED95E021508040904047
:10031000E1F700C0000080E80E94EB0289E20E9441
:10032000F60280E80E94EB020895CF93C82F892F30
:100330000E94EB028C2F0E94EB02CF910895CF9286
:10034000DF92EF92FF920F931F93CF93DF936C0195
:100350007B018A01E9018AE20E94F602C6010E943D
:100360009501C80101978C0D9D1D0E9495018BE29E
:100370000E94F602C7010E949501CE0101978E0DE1
:100380009F1D0E9495018CE20E94F602DF91CF91A1
:100390001F910F91FF90EF90DF90CF900895CF9233
:1003A000DF92EF92FF92CF93DF93EC016A017B0122
:1003B000452B462B472B49F0CE010E94950181E049
:1003C000C81AD108E108F108B9F7DF91CF91FF9081
:1003D000EF90DF90CF900895EF92FF920F931F93CD
:1003E000CF93DF93803F9105D0F4603421E0720712
:1003F000B0F47A018B01EC010E94CE022EE130E0D4
:100400004EE150E0B801CE010E949F0144E853E064
:1004100060E070E0C7010E94CF010E94D902DF9125
:10042000CF911F910F91FF90EF9008955F926F927F
:100430007F928F929F92AF92BF92CF92DF92EF9274
:10044000FF920F931F93CF93DF93411551056105E1
:10045000710561F189014A015B01C82FD92FC12CB7
:10046000D12C76011BC08881852121F0C8010E9412
:10047000950104C080E090E00E949501569481E0CF
:10048000681A710881F78FEFC81AD80AE80AF80AC3
:1004900021968C149D04AE04BF0441F06894662438
:1004A00063F8712C6894552457F8DDCFDF91CF9114
:1004B0001F910F91FF90EF90DF90CF90BF90AF9082
:1004C0009F908F907F906F905F9008950F931F93F0
:1004D000CF93DF93803F9105E0F4603421E0720711
:1004E000C0F48B01EC010E94CE022EE130E04EE11F
:1004F00050E0B801CE010E949F0120EE37E041E7B5
:1005000050E060E070E080E091E00E9416020E94FE
:10051000D902DF91CF911F910F910895CF93C82FEA
:100520008A3019F48DE00E948E02E0ECF0E08081C8
:1005300085FFFDCFC093C600CF910895E0ECF0E0B9
:1005400080818823ECF78091C60008951092C50041
:1005500087E68093C400E0ECF0E080818D7F8083AB
:1005600086E08093C20088E18093C100E6EAF1E072
:100570008FE791E09383828381E791E09183808389
:1005800008950E94A602089584B18C6284B92498CB
:100590002A9A81E08DBD80E58CBD089580E58CBDF3
:1005A00081E08DBD299A85E08A95F1F700002A98AF
:1005B00008952A9A2998089581E58CBD1DBC289834
:1005C0000895289A08958EBD00000DB407FEFDCF52
:1005D0008EB590E00895299A95E09A95F1F700007C
:1005E0002A980E94E3022A9A2998089595B1997F42
:1005F00095B99AE19A95F1F700C00E94E3022A9A10
:100600000895CF93C82F0E94DC028C2F80680E942F
:10061000E30280E00E94E30280E00E94E302C82F30
:100620000E94E1028C2FCF910895CF93DF93D82FB2
:10063000C62F0E94DC028D2F0E94E3028C2F0E94A5
:10064000E3020E94E102DF91CF910895CF93209AB7
:1006500085B185B962E083E00E9415038FE39CE9D0
:100660000197F1F700C00000C0E08C2F0E94010349
:10067000CF5FC134D1F760E084E00E94150361E0F0
:1006800080E40E94150361E08AE00E94150360E6A1
:1006900080E20E94150362E081E20E94150364EA91
:1006A00081E40E94150366E086E50E94150361E07F
:1006B0008AE40E94150361E08BE40E94150360E068
:1006C0008BE40E94150361E088E50E9415036FEF3B
:1006D0008BE00E94150365E089E00E94150381E923
:1006E00091E00E94D40481E0CF91089580E40E94BB
:1006F0000103807808958BE40E94010380720895BD
:100700008F929F92AF92BF92CF92DF92EF92FF9221
:100710000F931F93CF93DF9300D000D0CDB7DEB7F8
:100720005C016B017A018E010F5F1F4F4E0185E066
:10073000880E911C87ED0E940103F80181938F01BF
:10074000E815F905B9F78A812981F0E12F9F900119
:100750001124982F92959F70292BF50131832083C6
:100760008F7090E0982F88272B81822BF601918340
:1007700080838C81F70180836FEF8BE00E941503EB
:100780000F900F900F900F90DF91CF911F910F91CD
:10079000FF90EF90DF90CF90BF90AF909F908F90A1
:1007A0000895EF92FF920F931F93CF93DF9300D0A2
:1007B00000D01F92CDB7DEB77C018B010AC0AE011D
:1007C0004B5F5F4FBE016D5F7F4FCE0101960E9470
:1007D00080030E947B03882391F30E947B0388237C
:1007E00021F06FEF8BE00E94150329813A81ADEC77
:1007F000BCEC0E94C504929582958F7089279F70EA
:100800008927F701918380832B813C81A9E8B8E88F
:100810000E94C50496958795969587959695879598
:10082000F801918380830F900F900F900F900F909D
:10083000DF91CF911F910F91FF90EF900895CF938B
:10084000DF93EC010E94640480EF90E09D838C8331
:1008500080E491E09F838E83DF91CF9108950F9381
:100860001F93CF93DF9300D000D0CDB7DEB78C01BC
:10087000FC01468157814253510964817581769507
:100880006795CE0101960E945E0489819A81AB81B1
:10089000BC81F80180839183A283B3830F900F9072
:1008A0000F900F90DF91CF911F910F91089570E0FD
:1008B0000E94650408950E9469040895FC017183F3
:1008C00060835383428308950895FC01718360839C
:1008D0000895FC0162817381808191810E9466028A
:1008E0000895CF93DF93CDB7DEB728970FB6F8946E
:1008F000DEBF0FBECDBF0E94C1020E9479000E94E0
:100900002603811104C08BE991E00E94D404CE013A
:1009100001960E941F04CE0101960E942F040E949E
:100920007B03882349F02FEF80E792E0215080403D
:100930009040E1F700C000000E94760381110AC0D8
:100940002FEF80E792E0215080409040E1F700C017
:10095000000016C040E050E06EE071E080918F0131
:10096000909190010E94EC016DE871E08FE891E0B8
:100970000E94D10360918F01CE0101960E9457041D
:10098000CE0101960E945B04CACFA29FB001B39F23
:10099000C001A39F700D811D1124911DB29F700D88
:1009A000811D1124911D08950F931F93CF93DF9301
:1009B000E091A801F091A901238121FF1BC08C01C6
:1009C000D0E0C0E0F80181918F016091A8017091A1
:1009D000A901DB011896ED91FC911997882331F05C
:1009E0000995892B79F3DFEFCFEFECCF8AE00995FA
:1009F000892B19F08FEF9FEF02C08D2F9C2FDF9175
:0C0A0000CF911F910F910895F894FFCF43
:100A0C0000060000003C000001F800000660000039
:100A1C00108000004200008108100207E040081915
:100A2C00810070660E0143FC28050E70A014F9F2CB
:100A3C00807FFFFE01CFFF38063C1C6033F77CC182
:100A4C0093DDC98E8F07173CFDFF3CE4F7F273A3CF
:100A5C00DFC5CF3FFFCF39FFFF9CEEEF7773F13C43
:100A6C008FC784F21E0C13C830300600C000000083
:100A7C0000000000010000000000009E02000000C9
:100A8C00000002000000008E02000000000E017841
:100A9C0000494E49545F444F4E45004E6F20546FF1
:060AAC00756368210000E3
:00000001FF
