S017000045617274685F446566656E646572732E737265632A
S11300000C9434000C9451000C9451000C94510045
S11300100C9451000C9451000C9451000C94510018
S11300200C9451000C9451000C9451000C94510008
S11300300C9451000C9451000C9451000C945100F8
S11300400C9451000C9451000C9451000C945100E8
S11300500C9451000C9451000C9451000C945100D8
S11300600C9451000C94510011241FBECFEFD8E022
S1130070DEBFCDBF13E0A0E0B1E0E2E9FBE002C0E7
S113008005900D92A831B107D9F723E0A8E1B3E0B8
S113009001C01D92AE31B207E1F70E9402050C9433
S11300A0C7050C9400005F9A2FEF83EC99E0215070
S11300B080409040E1F700C000005F982FEF83EC90
S11300C099E0215080409040E1F700C000005F9A21
S11300D02FEF83EC99E0215080409040E1F700C07D
S11300E0000008950E9453008FEF8AB95F9A219A05
S11300F008950E9416030E94720081E00E94480342
S11301002FEF83ED90E3215080409040E1F700C051
S113011000008BEC0E94480389E30E943D038CE2BB
S11301200E943D0380E00E943D0384E30E943D035E
S113013082E00E943D038FEC0E94480380E00E940D
S11301403D0381EC0E943D0380E30E943D0388EE61
S11301500E94480385E80E943D0380E00E943D031D
S113016088E70E943D038AEE0E94480380E00E94D3
S11301703D0380E00E943D038DEE0E94480384E627
S11301800E943D0383E00E943D0382E10E943D03FF
S113019081E80E943D0387EF0E94480380E20E94A9
S11301A03D0380EC0E94480383E20E943D0380ECFF
S11301B00E94480380E10E943D0385EC0E944803AD
S11301C08EE30E943D0388E20E943D0387EC0E9477
S11301D0480386E80E943D0386E30E94480388E4BE
S11301E00E943D0387E30E94480380E00E943D0390
S11301F08AE30E94480385E50E943D0381EB0E9447
S1130200480380E00E943D0388E10E943D0386EBA1
S11302100E94480388E00E943D0382E80E943D0357
S113022087E20E943D0382EF0E94480380E00E941F
S11302303D0386E20E94480381E00E943D0380EE74
S11302400E9448038FE00E943D0381E30E943D0326
S11302508BE20E943D038CE00E943D038EE00E94ED
S11302603D0388E00E943D038EE40E943D0381EF3C
S11302700E943D0387E30E943D0387E00E943D0303
S113028080E10E943D0383E00E943D038EE00E94D2
S11302903D0389E00E943D0380E00E943D0381EE1E
S11302A00E94480380E00E943D038EE00E943D03CB
S11302B084E10E943D0383E00E943D0381E10E94AA
S11302C03D0387E00E943D0381E30E943D0381ECEE
S11302D00E943D0388E40E943D0388E00E943D03A0
S11302E08FE00E943D038CE00E943D0381E30E9465
S11302F03D0386E30E943D038FE00E943D0381E1BC
S11303000E9448032FEF8BED95E0215080409040F0
S1130310E1F700C0000080E80E943D0389E20E94EA
S1130320480380E80E943D030895CF93C82F892F86
S11303300E943D038C2F0E943D03CF910895CF92DC
S1130340DF92EF92FF920F931F93CF93DF936C0191
S11303507B018A01E9018AE20E944803C6010E94E6
S11303609501C80101978C0D9D1D0E9495018BE29A
S11303700E944803C7010E949501CE0101978E0D8A
S11303809F1D0E9495018CE20E944803DF91CF914A
S11303901F910F91FF90EF90DF90CF900895CF922F
S11303A0DF92EF92FF92CF93DF93EC016A017B011E
S11303B0452B462B472B49F0CE010E94950181E045
S11303C0C81AD108E108F108B9F7DF91CF91FF907D
S11303D0EF90DF90CF900895EF92FF920F931F93C9
S11303E0CF93DF93803F9105D0F4603421E072070E
S11303F0B0F47A018B01EC010E9420032EE130E07D
S11304004EE150E0B801CE010E949F0144E853E060
S113041060E070E0C7010E94CF010E942B03DF91CE
S1130420CF911F910F91FF90EF900895AF92BF92DB
S1130430CF92DF92EF92FF920F931F93CF93DF93AC
S11304406C015B017A01E9010E9420039E01A7016E
S1130450B501C6010E949F01EC9EA001ED9E500DC6
S1130460FC9E500D112460E070E0C8010E94CF0191
S11304700E942B03DF91CF911F910F91FF90EF907A
S1130480DF90CF90BF90AF9008958F929F92AF92DC
S1130490BF92CF92DF92EF92FF920F931F93CF936D
S11304A04A015B016901411551056105710529F195
S11304B07C01E40EF51E1DC0F70190819C2321F000
S11304C0C6010E94950104C080E090E00E9495015D
S11304D0CC0F0150110981F7F1E08F1A9108A1089E
S11304E0B10881E0E81AF10881149104A104B1046F
S11304F021F008E010E0C1E0DFCFCF911F910F9110
S1130500FF90EF90DF90CF90BF90AF909F908F902F
S113051008950F931F93CF93DF93803F9105E0F4E9
S1130520603421E07207C0F48B01EC010E942003C7
S11305302EE130E04EE150E0B801CE010E949F016F
S113054020EE37E041E750E060E070E08FE592E0B4
S11305500E9445020E942B03DF91CF911F910F91BE
S11305600895FF920F931F93CF93DF93803F9105DC
S113057008F5603421E07207E8F4F42E8B01EC01F5
S11305800E9420032AE030E04AE050E0B801CE01A6
S11305900E949F012DE0F29EC00111242FEF3FEF36
S11305A044E650E060E070E080509F4F0E944502B6
S11305B00E942B03DF91CF911F910F91FF9008951B
S11305C0CF93C82F8A3019F48DE00E94E002E0EC4A
S11305D0F0E0808185FFFDCFC093C600CF910895E0
S11305E0E0ECF0E080818823ECF78091C600089568
S11305F01092C50087E68093C400E0ECF0E08081AF
S11306008D7F808386E08093C20088E18093C1005F
S1130610E8E1F3E08EED92E09383828380ED92E053
S11306209183808308950E94F802089584B18C62B6
S113063084B924982A9A81E08DBD80E58CBD089503
S113064080E58CBD81E08DBD299A85E08A95F1F71E
S113065000002A9808952A9A2998089581E58CBD66
S11306601DBC28980895289A08958EBD00000DB4E5
S113067007FEFDCF8EB590E00895299A95E09A95EE
S1130680F1F700002A980E9435032A9A29980895C0
S113069095B1997F95B99AE19A95F1F700C00E94B6
S11306A035032A9A0895CF93C82F0E942E038C2FC6
S11306B080680E94350380E00E94350380E00E9438
S11306C03503C82F0E9433038C2FCF910895CF9305
S11306D0DF93D82FC62F0E942E038D2F0E9435033F
S11306E08C2F0E9435030E943303DF91CF9108952C
S11306F0CF93209A85B185B962E083E00E946703B5
S11307008FE39CE90197F1F700C00000C0E08C2F53
S11307100E945303CF5FC134D1F760E084E00E94AC
S1130720670361E080E40E94670361E08AE00E945D
S1130730670360E680E20E94670362E081E20E9450
S1130740670364EA81E40E94670366E086E50E9429
S1130750670361E08AE40E94670361E08BE40E941E
S1130760670360E08BE40E94670361E088E50E9410
S113077067036FEF8BE00E94670365E089E00E94E6
S113078067038CEE92E00E94970581E0CF91089573
S113079080E40E945303807808958BE40E945303FD
S11307A0807208958F929F92AF92BF92CF92DF9200
S11307B0EF92FF920F931F93CF93DF9300D000D05B
S11307C0CDB7DEB75C016B017A018E010F5F1F4F5D
S11307D04E0185E0880E911C87ED0E945303F801B9
S11307E081938F01E815F905B9F78A812981F0E130
S11307F02F9F90011124982F92959F70292BF5011A
S1130800318320838F7090E0982F88272B81822B4F
S1130810F601918380838C81F70180836FEF8BE0F5
S11308200E9467030F900F900F900F90DF91CF916C
S11308301F910F91FF90EF90DF90CF90BF90AF90FA
S11308409F908F900895EF92FF920F931F93CF93F1
S1130850DF9300D000D01F92CDB7DEB77C018B01AF
S11308600AC0AE014B5F5F4FBE016D5F7F4FCE018B
S113087001960E94D2030E94CD03882391F30E9423
S1130880CD03882321F06FEF8BE00E946703298159
S11308903A81A5E9B7ED0E948805929582958F70FB
S11308A089279F708927F701918380832B813C815D
S11308B0A9E8B8E80E948805969587959695879546
S11308C096958795F801918380830F900F900F90F0
S11308D00F900F90DF91CF911F910F91FF90EF90A8
S11308E008950E94A40408950F931F93CF93DF9358
S11308F000D000D0CDB7DEB78C0148E250E068E20A
S113090070E0CE0101960E949E0489819A81AB8198
S1130910BC81F80180839183A283B3830F900F90ED
S11309200F900F90DF91CF911F910F91089570E078
S11309300E94AC0408950E94B0040895FC017183E0
S1130940608353834283089522E330E0FC013183C2
S11309502083338322830895FC0171836083089587
S11309606CE370E0FC01808191810E94890208950A
S1130970FC0111821082138212820895FC0171839A
S11309806083538342830895FC01603209F460E478
S113099040EC460F808191818B30910550F486EEB6
S11309A090E091838083828193810A9793838283E9
S11309B003C00A97918380836281738180819181CE
S11309C00E94B1020895EF92FF920F931F93CF9369
S11309D0DF93442381F07C01EB014150042F10E0AC
S11309E00F5F1F4F060F171F6991C7010E94C404B0
S11309F0C017D107C9F7DF91CF911F910F91FF90D5
S1130A00EF900895CF93DF93CDB7DEB72C970FB651
S1130A10F894DEBF0FBECDBF0E9413030E9479007D
S1130A200E947803811104C086EF92E00E9497052A
S1130A3000E010E02FE331E04FEE50E060E070E0C2
S1130A4080E090E00E941602CE0101960E94B80454
S1130A504CE251E066EE70E0CE0101960E94BE04C5
S1130A604AE060E073E0CE0101960E94E3044EE0A8
S1130A7051E066EE70E0CE0101960E94BE044BE0A8
S1130A806BE073E0CE0101960E94E304CE0105966B
S1130A900E947104CE0105960E94740482E390E0E2
S1130AA09A8789879C878B870E94CD03882349F086
S1130AB02FEF81EE94E0215080409040E1F700C098
S1130AC000000E94C80381110AC02FEF81EE94E058
S1130AD0215080409040E1F700C0000014C040E085
S1130AE050E06CE370E089859A850E94EC01BE01B8
S1130AF0655F7F4FCE0109960E9423046985CE016C
S1130B0005960E949704CE0105960E949B04CCCFC3
S1130B10A29FB001B39FC001A39F700D811D11243A
S1130B20911DB29F700D811D1124911D08950F9385
S1130B301F93CF93DF93E0911A03F0911B0323815A
S1130B4021FF1BC08C01D0E0C0E0F80181918F012E
S1130B5060911A0370911B03DB011896ED91FC91CF
S1130B601997882331F00995892B79F3DFEFCFEFBB
S1130B70ECCF8AE00995892B19F08FEF9FEF02C023
S1130B808D2F9C2FDF91CF911F910F910895F89491
S1050B90FFCF91
S1130B9200000000000000000000000000000F0739
S1130BA2E198661F87E198660000003E0CC330F8A6
S1130BB2330CC330F80000001F0E6318C0300C63FE
S1130BC2987C0000003F0C630CC330CC3318FC004B
S1130BD200003F0FC300F83E0C03F0FC0000001FAE
S1130BE287E180781E060180600000000F07E18023
S1130BF2601B8661F83C000000198661987E1F869E
S1130C026198660000000F03C06018060180F03C82
S1130C120000000F83E01806098260F81C0000003F
S1130C221986C1E0701C0781B06600000018060135
S1130C328060180601F87E00000030CC339CFF3639
S1130C42CC330CC300000030CE33CCDB32CCF31CEB
S1130C52C30000000F07E39CC330CE71F83C0000D0
S1130C62001F066198661F060180600000001F8C49
S1130C72330CC332CCF3187D0000001F0661987E4A
S1130C8219064198660000000F07E18870070461A5
S1130C92F83C0000003FCFF06018060180601800A5
S1130CA200001986619866198661F83C00000030DC
S1130CB2CC330C661983C0601800000030CC330CAE
S1130CC2DB3FCE730CC300000030C660F01806038D
S1130CD2C198C300000030CC31983C0601806018F2
S1130CE20000003F8C6030180C060318FE00000060
S1130CF200000000000000000000000000000000EE
S1130D0200000000000000000000000000001800C5
S1130D120010F1000043C400110F1100647E4C0165
S1130D22936D3007799D401FF6FD007FFFF401F3B8
S1130D32FCF003E7E78007CF3C000F99E0001F6F48
S1130D4200003DB8000076C00000FE000001F00083
S1130D5200038000000400000010000000000000F6
S1130D6200000001000000000000F002000000008A
S1130D72000200000000E00200000000494E495455
S1130D825F444F4E45004E6F20546F7563682100D7
S1130D9248414C4C4F2057454C540048414C4C4F11
S10B0DA22046454C49580000AD
S9030000FC
